{
  "contractName": "Saving",
  "abi": [
    {
      "anonymous": false,
      "inputs": [
        {
          "indexed": true,
          "internalType": "address",
          "name": "custodian",
          "type": "address"
        },
        {
          "indexed": true,
          "internalType": "address",
          "name": "ward",
          "type": "address"
        },
        {
          "indexed": false,
          "internalType": "uint256",
          "name": "amount",
          "type": "uint256"
        },
        {
          "indexed": false,
          "internalType": "string",
          "name": "expiry",
          "type": "string"
        }
      ],
      "name": "custodyExpired",
      "type": "event"
    },
    {
      "anonymous": false,
      "inputs": [
        {
          "indexed": true,
          "internalType": "address",
          "name": "account",
          "type": "address"
        },
        {
          "indexed": false,
          "internalType": "string",
          "name": "accountType",
          "type": "string"
        },
        {
          "indexed": false,
          "internalType": "uint256",
          "name": "amount",
          "type": "uint256"
        }
      ],
      "name": "deposit",
      "type": "event"
    },
    {
      "anonymous": false,
      "inputs": [
        {
          "indexed": true,
          "internalType": "address",
          "name": "custodian",
          "type": "address"
        },
        {
          "indexed": true,
          "internalType": "address",
          "name": "ward",
          "type": "address"
        },
        {
          "indexed": false,
          "internalType": "uint256",
          "name": "amount",
          "type": "uint256"
        },
        {
          "indexed": false,
          "internalType": "uint256",
          "name": "expiry",
          "type": "uint256"
        }
      ],
      "name": "wardCreated",
      "type": "event"
    },
    {
      "anonymous": false,
      "inputs": [
        {
          "indexed": true,
          "internalType": "address",
          "name": "account",
          "type": "address"
        },
        {
          "indexed": false,
          "internalType": "string",
          "name": "accountType",
          "type": "string"
        },
        {
          "indexed": false,
          "internalType": "uint256",
          "name": "amount",
          "type": "uint256"
        }
      ],
      "name": "withdraw",
      "type": "event"
    },
    {
      "inputs": [
        {
          "internalType": "address",
          "name": "",
          "type": "address"
        }
      ],
      "name": "custodians",
      "outputs": [
        {
          "internalType": "uint256",
          "name": "amount",
          "type": "uint256"
        },
        {
          "internalType": "uint256",
          "name": "wardCount",
          "type": "uint256"
        },
        {
          "internalType": "uint256",
          "name": "lockedAmount",
          "type": "uint256"
        }
      ],
      "stateMutability": "view",
      "type": "function",
      "constant": true
    },
    {
      "inputs": [
        {
          "internalType": "uint256",
          "name": "",
          "type": "uint256"
        }
      ],
      "name": "custodyExpirations",
      "outputs": [
        {
          "internalType": "enum Saving.CustodyExpirationStatus",
          "name": "status",
          "type": "uint8"
        },
        {
          "internalType": "uint256",
          "name": "blockId",
          "type": "uint256"
        }
      ],
      "stateMutability": "view",
      "type": "function",
      "constant": true
    },
    {
      "inputs": [
        {
          "internalType": "address",
          "name": "",
          "type": "address"
        },
        {
          "internalType": "address",
          "name": "",
          "type": "address"
        }
      ],
      "name": "wards",
      "outputs": [
        {
          "internalType": "bool",
          "name": "",
          "type": "bool"
        }
      ],
      "stateMutability": "view",
      "type": "function",
      "constant": true
    },
    {
      "inputs": [
        {
          "internalType": "address payable",
          "name": "_ward",
          "type": "address"
        },
        {
          "internalType": "uint256",
          "name": "_expiry",
          "type": "uint256"
        },
        {
          "internalType": "address[]",
          "name": "_subCustodians",
          "type": "address[]"
        },
        {
          "internalType": "uint256",
          "name": "_subCustodianApprovalCount",
          "type": "uint256"
        }
      ],
      "name": "createWard",
      "outputs": [],
      "stateMutability": "payable",
      "type": "function",
      "payable": true
    },
    {
      "inputs": [
        {
          "internalType": "address",
          "name": "_ward",
          "type": "address"
        }
      ],
      "name": "depositIntoWard",
      "outputs": [],
      "stateMutability": "payable",
      "type": "function",
      "payable": true
    },
    {
      "inputs": [
        {
          "internalType": "address",
          "name": "_ward",
          "type": "address"
        }
      ],
      "name": "getBalanceAsCus",
      "outputs": [
        {
          "internalType": "uint256",
          "name": "",
          "type": "uint256"
        }
      ],
      "stateMutability": "view",
      "type": "function",
      "constant": true
    },
    {
      "inputs": [
        {
          "internalType": "address",
          "name": "_custodian",
          "type": "address"
        }
      ],
      "name": "getBalanceAsWard",
      "outputs": [
        {
          "internalType": "uint256",
          "name": "",
          "type": "uint256"
        }
      ],
      "stateMutability": "view",
      "type": "function",
      "constant": true
    },
    {
      "inputs": [],
      "name": "releaseLock",
      "outputs": [],
      "stateMutability": "nonpayable",
      "type": "function"
    },
    {
      "inputs": [],
      "name": "getCusBalance",
      "outputs": [
        {
          "internalType": "uint256",
          "name": "",
          "type": "uint256"
        }
      ],
      "stateMutability": "view",
      "type": "function",
      "constant": true
    },
    {
      "inputs": [],
      "name": "getCusWardCount",
      "outputs": [
        {
          "internalType": "uint256",
          "name": "",
          "type": "uint256"
        }
      ],
      "stateMutability": "view",
      "type": "function",
      "constant": true
    },
    {
      "inputs": [],
      "name": "getCusLockedAmount",
      "outputs": [
        {
          "internalType": "uint256",
          "name": "",
          "type": "uint256"
        }
      ],
      "stateMutability": "view",
      "type": "function",
      "constant": true
    },
    {
      "inputs": [],
      "name": "getContractBalance",
      "outputs": [
        {
          "internalType": "uint256",
          "name": "",
          "type": "uint256"
        }
      ],
      "stateMutability": "view",
      "type": "function",
      "constant": true
    },
    {
      "inputs": [
        {
          "internalType": "address",
          "name": "_ward",
          "type": "address"
        }
      ],
      "name": "getWardBalance",
      "outputs": [
        {
          "internalType": "uint256",
          "name": "",
          "type": "uint256"
        }
      ],
      "stateMutability": "view",
      "type": "function",
      "constant": true
    }
  ],
  "bytecode": "0x608060405234801561001057600080fd5b50611fc0806100206000396000f3fe6080604052600436106100c25760003560e01c806397376f8b1161007f578063bd1f0fe111610059578063bd1f0fe114610263578063c4169a79146102a0578063eda54ad2146102dd578063ff0acf4d146102f4576100c2565b806397376f8b146101cd578063a5d259101461020a578063bb7fc15514610226576100c2565b806341835dba146100c7578063636269b1146100e357806368b9da501461010e57806368dea8f5146101395780636f9fb98a1461017757806374f9f3d3146101a2575b600080fd5b6100e160048036038101906100dc91906115e6565b610333565b005b3480156100ef57600080fd5b506100f8610c35565b6040516101059190611baf565b60405180910390f35b34801561011a57600080fd5b50610123610c7e565b6040516101309190611baf565b60405180910390f35b34801561014557600080fd5b50610160600480360381019061015b919061169d565b610cc7565b60405161016e929190611a58565b60405180910390f35b34801561018357600080fd5b5061018c610cf8565b6040516101999190611baf565b60405180910390f35b3480156101ae57600080fd5b506101b7610d00565b6040516101c49190611baf565b60405180910390f35b3480156101d957600080fd5b506101f460048036038101906101ef9190611661565b610d49565b6040516102019190611a3d565b60405180910390f35b610224600480360381019061021f91906115bd565b610d78565b005b34801561023257600080fd5b5061024d600480360381019061024891906115bd565b610f74565b60405161025a9190611baf565b60405180910390f35b34801561026f57600080fd5b5061028a600480360381019061028591906115bd565b6110c8565b6040516102979190611baf565b60405180910390f35b3480156102ac57600080fd5b506102c760048036038101906102c291906115bd565b611226565b6040516102d49190611baf565b60405180910390f35b3480156102e957600080fd5b506102f261137a565b005b34801561030057600080fd5b5061031b600480360381019061031691906115bd565b61137c565b60405161032a93929190611bf3565b60405180910390f35b83600160008273ffffffffffffffffffffffffffffffffffffffff1673ffffffffffffffffffffffffffffffffffffffff16815260200190815260200160002060003373ffffffffffffffffffffffffffffffffffffffff1673ffffffffffffffffffffffffffffffffffffffff16815260200190815260200160002060009054906101000a900460ff16156103fe576040517f08c379a00000000000000000000000000000000000000000000000000000000081526004016103f590611aa1565b60405180910390fd5b60003411610441576040517f08c379a000000000000000000000000000000000000000000000000000000000815260040161043890611b6f565b60405180910390fd5b8183511015610485576040517f08c379a000000000000000000000000000000000000000000000000000000000815260040161047c90611ac1565b60405180910390fd5b6104ae426104a06007620151806113a690919063ffffffff16565b6113bc90919063ffffffff16565b84116104ef576040517f08c379a00000000000000000000000000000000000000000000000000000000081526004016104e690611b0f565b60405180910390fd5b60006040518060a0016040528034815260200160011515815260200186815260200185815260200184815250905060008060003373ffffffffffffffffffffffffffffffffffffffff1673ffffffffffffffffffffffffffffffffffffffff1681526020019081526020016000206001015411156106fa57806000803373ffffffffffffffffffffffffffffffffffffffff1673ffffffffffffffffffffffffffffffffffffffff16815260200190815260200160002060030160008873ffffffffffffffffffffffffffffffffffffffff1673ffffffffffffffffffffffffffffffffffffffff1681526020019081526020016000206000820151816000015560208201518160010160006101000a81548160ff021916908315150217905550604082015181600201556060820151816003019080519060200190610636929190611441565b506080820151816004015590505080600001516000803373ffffffffffffffffffffffffffffffffffffffff1673ffffffffffffffffffffffffffffffffffffffff16815260200190815260200160002060020160008282546106999190611c98565b925050819055506000803373ffffffffffffffffffffffffffffffffffffffff1673ffffffffffffffffffffffffffffffffffffffff168152602001908152602001600020600101600081546106ee90611dfb565b919050819055506107ff565b60008060003373ffffffffffffffffffffffffffffffffffffffff1673ffffffffffffffffffffffffffffffffffffffff1681526020019081526020016000209050600081600001819055506001816001018190555081600001518160020181905550818160030160008973ffffffffffffffffffffffffffffffffffffffff1673ffffffffffffffffffffffffffffffffffffffff1681526020019081526020016000206000820151816000015560208201518160010160006101000a81548160ff0219169083151502179055506040820151816002015560608201518160030190805190602001906107ef929190611441565b5060808201518160040155905050505b600061080a866113d2565b9050600060405180604001604052803373ffffffffffffffffffffffffffffffffffffffff1681526020018973ffffffffffffffffffffffffffffffffffffffff1681525090506001600281111561088b577f4e487b7100000000000000000000000000000000000000000000000000000000600052602160045260246000fd5b6002600084815260200190815260200160002060010160009054906101000a900460ff1660028111156108e7577f4e487b7100000000000000000000000000000000000000000000000000000000600052602160045260246000fd5b14156109c2576002600083815260200190815260200160002060000181908060018154018082558091505060019003906000526020600020906002020160009091909190915060008201518160000160006101000a81548173ffffffffffffffffffffffffffffffffffffffff021916908373ffffffffffffffffffffffffffffffffffffffff16021790555060208201518160010160006101000a81548173ffffffffffffffffffffffffffffffffffffffff021916908373ffffffffffffffffffffffffffffffffffffffff1602179055505050610b2c565b600060026000848152602001908152602001600020905060018160010160006101000a81548160ff02191690836002811115610a27577f4e487b7100000000000000000000000000000000000000000000000000000000600052602160045260246000fd5b02179055508060000160405180604001604052803373ffffffffffffffffffffffffffffffffffffffff1681526020018b73ffffffffffffffffffffffffffffffffffffffff16815250908060018154018082558091505060019003906000526020600020906002020160009091909190915060008201518160000160006101000a81548173ffffffffffffffffffffffffffffffffffffffff021916908373ffffffffffffffffffffffffffffffffffffffff16021790555060208201518160010160006101000a81548173ffffffffffffffffffffffffffffffffffffffff021916908373ffffffffffffffffffffffffffffffffffffffff1602179055505050505b60018060008a73ffffffffffffffffffffffffffffffffffffffff1673ffffffffffffffffffffffffffffffffffffffff16815260200190815260200160002060003373ffffffffffffffffffffffffffffffffffffffff1673ffffffffffffffffffffffffffffffffffffffff16815260200190815260200160002060006101000a81548160ff0219169083151502179055508773ffffffffffffffffffffffffffffffffffffffff163373ffffffffffffffffffffffffffffffffffffffff167f593cef68bb3c2775f11e494ee31f0e3232b02651139c6a3744bb4868e677869085600001518a604051610c23929190611bca565b60405180910390a35050505050505050565b60008060003373ffffffffffffffffffffffffffffffffffffffff1673ffffffffffffffffffffffffffffffffffffffff16815260200190815260200160002060020154905090565b60008060003373ffffffffffffffffffffffffffffffffffffffff1673ffffffffffffffffffffffffffffffffffffffff16815260200190815260200160002060000154905090565b60026020528060005260406000206000915090508060010160009054906101000a900460ff16908060020154905082565b600047905090565b60008060003373ffffffffffffffffffffffffffffffffffffffff1673ffffffffffffffffffffffffffffffffffffffff16815260200190815260200160002060010154905090565b60016020528160005260406000206020528060005260406000206000915091509054906101000a900460ff1681565b60003411610dbb576040517f08c379a0000000000000000000000000000000000000000000000000000000008152600401610db290611b6f565b60405180910390fd5b60011515600160008373ffffffffffffffffffffffffffffffffffffffff1673ffffffffffffffffffffffffffffffffffffffff16815260200190815260200160002060003373ffffffffffffffffffffffffffffffffffffffff1673ffffffffffffffffffffffffffffffffffffffff16815260200190815260200160002060009054906101000a900460ff16151514610e8b576040517f08c379a0000000000000000000000000000000000000000000000000000000008152600401610e8290611b4f565b60405180910390fd5b346000803373ffffffffffffffffffffffffffffffffffffffff1673ffffffffffffffffffffffffffffffffffffffff16815260200190815260200160002060030160008373ffffffffffffffffffffffffffffffffffffffff1673ffffffffffffffffffffffffffffffffffffffff1681526020019081526020016000206000016000828254610f1c9190611c98565b925050819055508073ffffffffffffffffffffffffffffffffffffffff167ff3db9fe5c2a2a83c3da08024c68cfbea7f49d93e1004b60512a257c3ced378f134604051610f699190611ae1565b60405180910390a250565b6000600160003373ffffffffffffffffffffffffffffffffffffffff1673ffffffffffffffffffffffffffffffffffffffff16815260200190815260200160002060008373ffffffffffffffffffffffffffffffffffffffff1673ffffffffffffffffffffffffffffffffffffffff16815260200190815260200160002060009054906101000a900460ff1661103f576040517f08c379a000000000000000000000000000000000000000000000000000000000815260040161103690611b2f565b60405180910390fd5b6000808373ffffffffffffffffffffffffffffffffffffffff1673ffffffffffffffffffffffffffffffffffffffff16815260200190815260200160002060030160003373ffffffffffffffffffffffffffffffffffffffff1673ffffffffffffffffffffffffffffffffffffffff168152602001908152602001600020600001549050919050565b60008160011515600160008373ffffffffffffffffffffffffffffffffffffffff1673ffffffffffffffffffffffffffffffffffffffff16815260200190815260200160002060003373ffffffffffffffffffffffffffffffffffffffff1673ffffffffffffffffffffffffffffffffffffffff16815260200190815260200160002060009054906101000a900460ff161515141561119c576040517f08c379a000000000000000000000000000000000000000000000000000000000815260040161119390611b8f565b60405180910390fd5b6000803373ffffffffffffffffffffffffffffffffffffffff1673ffffffffffffffffffffffffffffffffffffffff16815260200190815260200160002060030160008473ffffffffffffffffffffffffffffffffffffffff1673ffffffffffffffffffffffffffffffffffffffff16815260200190815260200160002060000154915050919050565b6000600160008373ffffffffffffffffffffffffffffffffffffffff1673ffffffffffffffffffffffffffffffffffffffff16815260200190815260200160002060003373ffffffffffffffffffffffffffffffffffffffff1673ffffffffffffffffffffffffffffffffffffffff16815260200190815260200160002060009054906101000a900460ff166112f1576040517f08c379a00000000000000000000000000000000000000000000000000000000081526004016112e890611a81565b60405180910390fd5b6000803373ffffffffffffffffffffffffffffffffffffffff1673ffffffffffffffffffffffffffffffffffffffff16815260200190815260200160002060030160008373ffffffffffffffffffffffffffffffffffffffff1673ffffffffffffffffffffffffffffffffffffffff168152602001908152602001600020600001549050919050565b565b60006020528060005260406000206000915090508060000154908060010154908060020154905083565b600081836113b49190611cee565b905092915050565b600081836113ca9190611c98565b905092915050565b60006113e9618e308361141590919063ffffffff16565b905060008114156113fa578061140e565b61140d818361142b90919063ffffffff16565b5b9050919050565b600081836114239190611e44565b905092915050565b600081836114399190611d48565b905092915050565b8280548282559060005260206000209081019282156114ba579160200282015b828111156114b95782518260006101000a81548173ffffffffffffffffffffffffffffffffffffffff021916908373ffffffffffffffffffffffffffffffffffffffff16021790555091602001919060010190611461565b5b5090506114c791906114cb565b5090565b5b808211156114e45760008160009055506001016114cc565b5090565b60006114fb6114f684611c5b565b611c2a565b9050808382526020820190508285602086028201111561151a57600080fd5b60005b8581101561154a57816115308882611554565b84526020840193506020830192505060018101905061151d565b5050509392505050565b60008135905061156381611f45565b92915050565b60008135905061157881611f5c565b92915050565b600082601f83011261158f57600080fd5b813561159f8482602086016114e8565b91505092915050565b6000813590506115b781611f73565b92915050565b6000602082840312156115cf57600080fd5b60006115dd84828501611554565b91505092915050565b600080600080608085870312156115fc57600080fd5b600061160a87828801611569565b945050602061161b878288016115a8565b935050604085013567ffffffffffffffff81111561163857600080fd5b6116448782880161157e565b9250506060611655878288016115a8565b91505092959194509250565b6000806040838503121561167457600080fd5b600061168285828601611554565b925050602061169385828601611554565b9150509250929050565b6000602082840312156116af57600080fd5b60006116bd848285016115a8565b91505092915050565b6116cf81611da0565b82525050565b6116de81611de9565b82525050565b60006116f1602083611c87565b91507f546869732069732061646472657373206973206e6f7420796f757220776172646000830152602082019050919050565b6000611731601383611c87565b91507f576172642065786973747320616c7265616479000000000000000000000000006000830152602082019050919050565b6000611771604583611c87565b91507f437573746f6469616e20617070726f76616c2073686f756c642062652065717560008301527f616c206f72206c6f776572207468616e20617661696c61626c6520637573746f60208301527f6469616e730000000000000000000000000000000000000000000000000000006040830152606082019050919050565b60006117fd600483611c87565b91507f77617264000000000000000000000000000000000000000000000000000000006000830152602082019050919050565b600061183d605f83611c87565b91507f546865206578706972792064617465206d757374206265206d6f72652074686160008301527f6e2037206461797320696e20746865206675747572652c206966206e6f74207460208301527f68652066756e64732077696c6c206265206c6f636b656420666f7265766572006040830152606082019050919050565b60006118c9602a83611c87565b91507f546869732061646472657373206973206e6f74206f6e65206f6620796f75722060008301527f437573746f6469616e73000000000000000000000000000000000000000000006020830152604082019050919050565b600061192f602683611c87565b91507f596f7520646f206e6f742068617665207468697320616464726573732061732060008301527f61207761726400000000000000000000000000000000000000000000000000006020830152604082019050919050565b6000611995602483611c87565b91507f596f75206861766520746f206465706f7369742065746820746f20746869732060008301527f77617264000000000000000000000000000000000000000000000000000000006020830152604082019050919050565b60006119fb601383611c87565b91507f5761726420646f6573206e6f74206578697374000000000000000000000000006000830152602082019050919050565b611a3781611ddf565b82525050565b6000602082019050611a5260008301846116c6565b92915050565b6000604082019050611a6d60008301856116d5565b611a7a6020830184611a2e565b9392505050565b60006020820190508181036000830152611a9a816116e4565b9050919050565b60006020820190508181036000830152611aba81611724565b9050919050565b60006020820190508181036000830152611ada81611764565b9050919050565b60006040820190508181036000830152611afa816117f0565b9050611b096020830184611a2e565b92915050565b60006020820190508181036000830152611b2881611830565b9050919050565b60006020820190508181036000830152611b48816118bc565b9050919050565b60006020820190508181036000830152611b6881611922565b9050919050565b60006020820190508181036000830152611b8881611988565b9050919050565b60006020820190508181036000830152611ba8816119ee565b9050919050565b6000602082019050611bc46000830184611a2e565b92915050565b6000604082019050611bdf6000830185611a2e565b611bec6020830184611a2e565b9392505050565b6000606082019050611c086000830186611a2e565b611c156020830185611a2e565b611c226040830184611a2e565b949350505050565b6000604051905081810181811067ffffffffffffffff82111715611c5157611c50611f02565b5b8060405250919050565b600067ffffffffffffffff821115611c7657611c75611f02565b5b602082029050602081019050919050565b600082825260208201905092915050565b6000611ca382611ddf565b9150611cae83611ddf565b9250827fffffffffffffffffffffffffffffffffffffffffffffffffffffffffffffffff03821115611ce357611ce2611e75565b5b828201905092915050565b6000611cf982611ddf565b9150611d0483611ddf565b9250817fffffffffffffffffffffffffffffffffffffffffffffffffffffffffffffffff0483118215151615611d3d57611d3c611e75565b5b828202905092915050565b6000611d5382611ddf565b9150611d5e83611ddf565b925082821015611d7157611d70611e75565b5b828203905092915050565b6000611d8782611dbf565b9050919050565b6000611d9982611dbf565b9050919050565b60008115159050919050565b6000819050611dba82611f31565b919050565b600073ffffffffffffffffffffffffffffffffffffffff82169050919050565b6000819050919050565b6000611df482611dac565b9050919050565b6000611e0682611ddf565b91507fffffffffffffffffffffffffffffffffffffffffffffffffffffffffffffffff821415611e3957611e38611e75565b5b600182019050919050565b6000611e4f82611ddf565b9150611e5a83611ddf565b925082611e6a57611e69611ea4565b5b828206905092915050565b7f4e487b7100000000000000000000000000000000000000000000000000000000600052601160045260246000fd5b7f4e487b7100000000000000000000000000000000000000000000000000000000600052601260045260246000fd5b7f4e487b7100000000000000000000000000000000000000000000000000000000600052602160045260246000fd5b7f4e487b7100000000000000000000000000000000000000000000000000000000600052604160045260246000fd5b60038110611f4257611f41611ed3565b5b50565b611f4e81611d7c565b8114611f5957600080fd5b50565b611f6581611d8e565b8114611f7057600080fd5b50565b611f7c81611ddf565b8114611f8757600080fd5b5056fea264697066735822122094623b3540c3e9d9080f39deacd9633a33573f6954e143344a348c18859c307364736f6c63430008000033",
  "immutableReferences": {},
  "source": "// SPDX-License-Identifier: GPL-3.0\n\npragma solidity >=0.4.22 <0.9.0;\n\nimport \"@openzeppelin/contracts/utils/math/SafeMath.sol\";\ncontract Saving{  \n\n    /**\n    *TODO\n    *   1. Insert release days for locks\n    *   2. \n    */\n    using SafeMath for uint256;\n\n    struct Ward {\n        uint amount;\n        bool locked; \n        uint expiry;\n        address[] subCustodians;\n        uint subCustodianApprovalCount;\n    }\n    struct Custodian {\n        uint amount;\n        uint wardCount;\n        uint lockedAmount;\n        mapping(address => Ward) wards;\n    }\n    struct LockId{ \n        address custodian;\n        address ward;\n    }\n    struct CustodyExpiration{\n        LockId[] locks;\n        CustodyExpirationStatus status;\n        uint256 blockId;\n    }\n    enum CustodyExpirationStatus {Default, Pending, Executed }\n\n    mapping(address => Custodian ) public custodians;\n    /*\n    * for easy identification of wards and thier custodians \n    *   wardAdress => Custodians adresses\n    */\n    mapping(address => mapping(address => bool )) public wards;\n    /**\n        * Where all the custody expirations are stored \n        * for oracle keepers to call on expiry \n        *keys = block.timestamp - (block.timestamp /x/ 86400 [seconds in a day]); -- this equation gives you the timestamp for start of day. \n     */\n    mapping( uint256 => CustodyExpiration )  public custodyExpirations;\n\n    event wardCreated(address indexed custodian, address indexed ward, uint256 amount, uint expiry);\n    event custodyExpired(address indexed custodian, address indexed ward, uint256 amount, string expiry);\n    event deposit(address indexed account, string accountType, uint256 amount);\n    event withdraw(address indexed account, string accountType, uint256 amount);\n\n    modifier onlyOnExpiration(address _ward){\n        require(block.timestamp >= custodians[msg.sender].wards[_ward].expiry, 'Release date of custody not reached or passed yet' ); \n        _;\n    }\n\n    modifier onlyOnLock(address _ward){\n        require(custodians[msg.sender].wards[_ward].locked, 'The wards account must be under lock to be released');\n        _;\n    }\n    modifier wardAmountNotEmpty(address _ward){\n        require(custodians[msg.sender].wards[_ward].amount > 0, 'There is nothing to send to the ward');\n        _;\n    }\n    modifier onlyCustodian() {\n        require(custodians[msg.sender].wardCount != 0, 'You must be a custodian to take this action');\n        _;\n    }\n\n    modifier wardExists(address _ward)\n    {\n        \n        require(!wards[_ward][msg.sender], 'Ward exists already');\n        _;\n    }\n\n    modifier wardNotExist(address _ward) {\n         require(wards[_ward][msg.sender] !=true, 'Ward does not exist');\n         _;\n    }\n\n\n    modifier noValue(){\n        require(msg.value > 0, 'You have to deposit eth to this ward');\n        _;\n    }\n\n    //@dev This creates a ward which is then locked add appropraite updated. \n    function createWard(\n        address payable _ward, \n        uint256 _expiry, \n        address[] memory _subCustodians, \n        uint _subCustodianApprovalCount\n    ) public payable wardExists(_ward) noValue()\n    {\n        require(\n            _subCustodians.length >= _subCustodianApprovalCount, \n            'Custodian approval should be equal or lower than available custodians'\n        );\n        require(\n            _expiry > (uint256(86400).mul(7).add(block.timestamp)), \n            'The expiry date must be more than 7 days in the future, if not the funds will be locked forever'\n        );\n\n        // Create a new ward\n         Ward memory newWard = Ward({\n             amount: msg.value,\n             locked: true,\n             expiry: _expiry, \n             subCustodians: _subCustodians, \n             subCustodianApprovalCount: _subCustodianApprovalCount\n\n         });\n       \n        // if custodian exists and has an existing ward\n        if(custodians[msg.sender].wardCount > 0){\n            custodians[msg.sender].wards[_ward] = newWard;\n            custodians[msg.sender].lockedAmount += newWard.amount;\n            ++custodians[msg.sender].wardCount; \n\n        }else{\n            // Custodian does not exists \n            Custodian storage _custodian = custodians[msg.sender];\n            _custodian.amount = 0;\n            _custodian.wardCount = 1;\n            _custodian.lockedAmount = newWard.amount;\n            _custodian.wards[_ward] = newWard; \n        }\n        //@dev add to ExpirationlockedIds\n        uint256 lockIdKey = _setLockDate(_expiry);\n        LockId memory _lockId = LockId({\n            custodian: msg.sender,\n            ward: _ward\n        });\n        // custodyExpirations[lockId] = \n        if(custodyExpirations[lockIdKey].status == CustodyExpirationStatus.Pending)\n        {\n            custodyExpirations[lockIdKey].locks.push(_lockId);\n        }\n        else{\n            CustodyExpiration storage _expiration = custodyExpirations[lockIdKey];\n\n           _expiration.status = CustodyExpirationStatus.Pending;\n           _expiration.locks.push(LockId({\n               custodian: msg.sender,\n               ward: _ward\n           }));\n        }\n        wards[_ward][msg.sender] = true;        \n\n        emit wardCreated(msg.sender, _ward,newWard.amount, _expiry);\n    }\n\n    function depositIntoWard(address _ward) payable public  noValue(){\n        require(wards[_ward][msg.sender]== true, 'You do not have this address as a ward');\n        custodians[msg.sender].wards[_ward].amount += msg.value;\n        emit deposit(_ward, 'ward', msg.value);\n    }\n    //@dev This function makes sure that the expiry date is at the begining of the day\n    function _setLockDate(uint256 _expiry) private pure returns (uint256 expiry){\n        expiry = _expiry.mod(36400);\n        expiry = expiry !=0 ? _expiry.sub(expiry): expiry;\n    }\n\n    function getBalanceAsCus(address _ward) public view returns(uint256){\n        require(wards[_ward][msg.sender], 'This is address is not your ward');\n        return custodians[msg.sender].wards[_ward].amount;\n    }\n\n    function getBalanceAsWard(address _custodian) public view returns(uint256){\n        require(wards[msg.sender][_custodian], 'This address is not one of your Custodians');\n        return custodians[_custodian].wards[msg.sender].amount;\n    }\n\n    //@dev function that is hit by a keeper to Release the fund to the ward at the expiry \n    //@dev time specified at lock, also a certian percent should be sent to a wallet for housekeeping, (1%)\n    function releaseLock()  public {\n\n    }\n\n    function getCusBalance() public view returns(uint){\n        return custodians[msg.sender].amount;\n    }\n\n    function getCusWardCount() public view returns(uint){\n        return custodians[msg.sender].wardCount;\n    }\n\n    function getCusLockedAmount() public view returns(uint){\n        return custodians[msg.sender].lockedAmount;\n    }\n\n    function getContractBalance() public view returns(uint256)\n    {\n        return address(this).balance;\n    }\n\n    function getWardBalance(address _ward) public wardNotExist(_ward) view returns(uint256)\n    {\n        return custodians[msg.sender].wards[_ward].amount;\n    }\n\n}",
  "sourcePath": "/Users/Akunne/Documents/Code-projects/blockchain/monthly-savings-app/contracts/Saving.sol",
  "compiler": {
    "name": "solc",
    "version": "0.8.0+commit.c7dfd78e.Emscripten.clang"
  },
  "schemaVersion": "3.4.3",
  "updatedAt": "2022-01-31T12:21:15.576Z",
  "networkType": "ethereum",
  "devdoc": {
    "kind": "dev",
    "methods": {},
    "version": 1
  },
  "userdoc": {
    "kind": "user",
    "methods": {
      "custodyExpirations(uint256)": {
        "notice": "Where all the custody expirations are stored  for oracle keepers to call on expiry  keys = block.timestamp - (block.timestamp /x/ 86400 [seconds in a day]); -- this equation gives you the timestamp for start of day. "
      }
    },
    "version": 1
  }
}